:100000000BC00FC223C022C021C0B9C01FC01EC078
:100010001DC01CC01BC01AC011241FBECFEDCDBF18
:1000200010E0A4E6B0E001C01D92AA3AB107E1F7E2
:1000300010E0A0E6B0E0E4E4F6E003C0C895319635
:100040000D92A436B107D1F753D0FAC2D9CF67FDCC
:1000500003C0603221F402C06FE101C060E047FDDF
:1000600003C0483019F003C047E001C040E021E080
:1000700030E002C0220F331F4A95E2F7E62FFF2738
:10008000E7FDF095E80FF91F808182230895C3985A
:100090000895C39A089509C0C498962F982311F023
:1000A000C59A01C0C598C49A66956623A9F70895B4
:1000B0001F93182FECDF84E064E0EDDF812F60E810
:1000C000EADF80E061E0E7DFE4DF1F910895CF938E
:1000D000DF93CAE6D0E011D2899380E0CA38D8070E
:1000E000D1F71092690010926800DF91CF910895C6
:1000F000CF93DF9388B3886388BB87B3886387BB5C
:10010000C6DFC7DF80E0D4DF81E0D2DF84E1D0DF6B
:1001100088E1CEDF80E2CCDF87EACADFC0E0D0E052
:10012000B6DF85E064E0B7DF8C2F60E4B4DF8C2FAE
:1001300068E0B1DFAEDF2196C034D10589F783E0F6
:10014000B7DFC5DF8FB58F608FBD89B7846089BF8A
:1001500087B3876087BB8AB38E6F8ABB85B782609F
:1001600085BF8BB780648BBF789482EF8BBBC09ABE
:10017000EFECF7E03197F1F700C00000F7CF1F92E6
:100180000F920FB60F9211245F926F927F928F920F
:100190009F92AF92BF92CF92DF92EF92FF920F9316
:1001A0001F932F933F934F935F936F937F938F93FF
:1001B0009F93AF93BF93CF93DF93EF93FF93809180
:1001C000680090916900019690936900809368009F
:1001D0004AE6C42E40E0D42ECC2DDD2D10E009914E
:1001E00056DF85E064E057DF812F60E454DF802F25
:1001F00060E851DF4EDF1E5F103489F709EA10E036
:1002000031E2A32E21E0E22EF12C6CC0C7E0D0E059
:100210009EEF792E7A0C5C2E8AE690E0672D4C2FAB
:1002200016DFBB24B394882309F4BB249C2E8C2EA8
:1002300083948AE690E0672D482D09DF8111B394FD
:100240009A948AE690E0672D492D01DF8111B394DD
:100250008AE690E0662D492DFADE8111B3948AE694
:1002600090E0662D482DF3DE8111B3948AE690E08C
:100270006A2D452DECDE8111B3948AE690E06A2D5B
:10028000482DE5DE8111B3948AE690E06A2D492D70
:10029000DEDE8111B3949B2D923070F0943060F4C7
:1002A0008AE690E0662D452DD2DE882309F0ABC0AA
:1002B000AB2DA33009F4A7C08E2D9F2D0C2E02C0AC
:1002C000880F991F0A94E2F78095A02FB12F9C9177
:1002D00098239C932197BFEFCF3FDB0709F09BCF7B
:1002E000015010408EEF682E6A0CAA9409F08ECF50
:1002F00000E0EE241FC08AE890E0602F412FA7DEC7
:10030000813041F48AE690E0602F412FA0DE8823FF
:1003100051F00AC0882341F48AE690E0602F412F13
:1003200096DE813009F4E3941F5F183021F70F5FE8
:10033000003211F010E0DFCFEE2DE53030F4809187
:1003400065008F5F809365001BC0FE2DF93030F48F
:10035000809166009091670001960EC080916500C3
:10036000882319F0815080936500809166009091F8
:100370006700009729F001979093670080936600CB
:10038000809165008B3218F0109265000BC080914F
:10039000660090916700853C910530F010926700EF
:1003A0001092660094DE0CC0EAE8F0E08191AC2D7A
:1003B000BD2D8D93CA2EDB2EB0E0EA3AFB07B1F7D4
:1003C00081E080936400FF91EF91DF91CF91BF9125
:1003D000AF919F918F917F916F915F914F913F91DD
:1003E0002F911F910F91FF90EF90DF90CF90BF90D2
:1003F000AF909F908F907F906F905F900F900FBE07
:100400000F901F9018958E2D9F2D0C2E02C0880FD7
:10041000991F0A94E2F7A02FB12F2C91282B2C932F
:1004200059CF1F920F920FB60F9211242F933F9323
:100430004F935F936F937F938F939F93AF93BF93EC
:10044000EF93FF9344DEFF91EF91BF91AF919F91A6
:100450008F917F916F915F914F913F912F910F906D
:100460000FBE0F901F901895A0E0B0E0E9E3F2E016
:1004700090C0C82FD92F688179818A819B816115AD
:1004800071058105910521F464E279ED8BE597E032
:100490002DE133EF41E050E059D0E22EF32E042F4E
:1004A000152F27EA31E440E050E035D0A62EB72ED4
:1004B000C82ED92E912F802F7F2D6E2D2CEE34EF4C
:1004C0004FEF5FEF28D0262F372F482F592F2A0DB7
:1004D0003B1D4C1D5D1D57FF04C021503040404066
:1004E0005048288339834A835B833F77822F932F39
:1004F000CDB7DEB7EAE069C0B7CF80E690E0B4CF11
:10050000A0E0B0E08093600090936100A09362004F
:10051000B09363000895FF27EE27BB27AA2760FF4B
:1005200004C0A20FB31FE41FF51F220F331F441F87
:10053000551F969587957795679589F70097760764
:1005400071F79F2F8E2F7B2F6A2F089597FB092E0F
:1005500005260ED057FD04D04CD00AD0001C38F42C
:1005600050954095309521953F4F4F4F5F4F0895DF
:10057000F6F790958095709561957F4F8F4F9F4FBF
:1005800008952F923F924F925F926F927F928F9237
:100590009F92AF92BF92CF92DF92EF92FF920F9312
:1005A0001F93CF93DF93CDB7DEB7CA1BDB0B0FB61C
:1005B000F894DEBF0FBECDBF09942A8839884888D9
:1005C0005F846E847D848C849B84AA84B984C8846F
:1005D000DF80EE80FD800C811B81AA81B981CE0F66
:1005E000D11D0FB6F894DEBF0FBECDBFCA2FDB2FD3
:1005F0000895A1E21A2EAA1BBB1BEA2FFB2F0DC0E8
:10060000AA1FBB1FEE1FFF1FA217B307E407F507C2
:1006100020F0A21BB30BE40BF50B661F771F881F9E
:10062000991F1A9469F76095709580959095262F7B
:10063000372F482F592F6A2F7B2F8E2F9F2F0895EA
:04064000F894FFCF5C
:0406440001000000B1
:00000001FF
