:100000000BC009C223C022C021C020C0A8C01EC08E
:100010001DC01CC01BC01AC011241FBECFEDCDBF18
:1000200010E0A4E6B0E001C01D92A83AB107E1F7E4
:1000300010E0A0E6B0E0E8E3F6E003C0C895319632
:100040000D92A436B107D1F750D0F4C2D9CF67FDD5
:1000500003C0603221F402C06FE101C060E047FDDF
:1000600003C0483019F003C047E001C040E021E080
:1000700030E002C0220F331F4A95E2F7E62FFF2738
:10008000E7FDF095E80FF91F808182230895C3985A
:100090000895C39A089509C0C498962F982311F023
:1000A000C59A01C0C598C49A66956623A9F70895B4
:1000B0001F93182FECDF84E064E0EDDF812F60E810
:1000C000EADF80E061E0E7DFE4DF1F910895CF938E
:1000D000DF93C8E6D0E00BD20AD2899380E0C8381B
:1000E000D807C9F7DF91CF910895CF93DF9388B3F5
:1000F000886388BB87B3886387BBC9DFCADF80E0BA
:10010000D7DF81E0D5DF84E1D3DF88E1D1DF80E292
:10011000CFDF87EACDDFC0E0D0E0B9DF85E064E083
:10012000BADF8C2F60E4B7DF8C2F68E0B4DFB1DF7B
:100130002196C034D10589F783E0BADFBE98C69A0C
:10014000C6DF83B7856083BF89B7826089BF85B703
:10015000826085BF8BB780648BBF7894FFCF1F927E
:100160000F920FB60F9211243F924F925F926F92AF
:100170007F928F929F92AF92BF92CF92DF92EF9237
:10018000FF920F931F932F933F934F935F936F9320
:100190007F938F939F93AF93BF93CF93DF93EF930F
:1001A000FF93809167008F3030F4809167008F5FFC
:1001B000809367000EC11092670028E6422E20E06F
:1001C000522EC42DD52D10E0099161DF85E064E049
:1001D00062DF812F60E45FDF802F60E85CDF59DF42
:1001E0001E5F103489F798E8E92E90E0F92E0E2D65
:1001F0001F2DCC2481E0682E712C6AC03C2E88E62D
:1002000090E06A2D4C2F23DFDD24D394882309F45A
:10021000DD249C2E8C2E839488E690E06A2D482D58
:1002200016DF8111D3949A9488E690E06A2D492DC7
:100230000EDF8111D39488E690E06C2D492D07DF05
:100240008111D39488E690E06C2D482D00DF811158
:10025000D39488E690E06B2D432DF9DE8111D39481
:1002600088E690E06B2D482DF2DE8111D39488E66C
:1002700090E06B2D492DEBDE8111D3949D2D9230B2
:1002800070F0943060F488E690E06C2D432DDFDE52
:10029000882309F090C0ED2DE33009F48CC0862D41
:1002A000972D0C2E02C0880F991F0A94E2F78095B3
:1002B000E02FF12F9081982390832196C830D105AB
:1002C00009F09CCFC3940F5F1F4FFC2DF03239F122
:1002D000C0E0D0E0AC2CAA94BC2CB3948FCF88E8BB
:1002E00090E0602F412FB3DE813041F488E690E04A
:1002F000602F412FACDE882351F00AC0882341F4DF
:1003000088E690E0602F412FA2DE813009F4D3947B
:100310001F5F183021F70F5F003219F404C000E0AE
:10032000DD2410E0DCCF2D2D253030F480916400E9
:100330008F5F809364001BC03D2D393030F4809175
:1003400065009091660001960EC08091640088233C
:1003500019F081508093640080916500909166004F
:10036000009729F001979093660080936500809133
:1003700064008B3218F0109264000BC0809165000D
:1003800090916600853C910530F0109266001092C5
:1003900065009DDE1EC0EE2DFF2D8191EE2EFF2EFD
:1003A000E42DF52D81934E2E5F2EF8EAEF16F0E046
:1003B000FF0689F70EC0862D972D0C2E02C0880FE0
:1003C000991F0A94E2F7E02FF12F2081282B208338
:1003D00074CFFF91EF91DF91CF91BF91AF919F913A
:1003E0008F917F916F915F914F913F912F911F91CD
:1003F0000F91FF90EF90DF90CF90BF90AF909F90C4
:100400008F907F906F905F904F903F900F900FBEB6
:100410000F901F9018951F920F920FB60F921124F4
:100420002F933F934F935F936F937F938F939F93FC
:10043000AF93BF93EF93FF934ADEFF91EF91BF918C
:10044000AF919F918F917F916F915F914F913F916C
:100450002F910F900FBE0F901F901895A0E0B0E065
:10046000E3E3F2E090C0C82FD92F688179818A81B7
:100470009B81611571058105910521F464E279ED97
:100480008BE597E02DE133EF41E050E059D0E22ECB
:10049000F32E042F152F27EA31E440E050E035D049
:1004A000A62EB72EC82ED92E912F802F7F2D6E2DE0
:1004B0002CEE34EF4FEF5FEF28D0262F372F482F49
:1004C000592F2A0D3B1D4C1D5D1D57FF04C02150A7
:1004D000304040405048288339834A835B833F77CC
:1004E000822F932FCDB7DEB7EAE069C0B7CF80E6A1
:1004F00090E0B4CFA0E0B0E0809360009093610002
:10050000A0936200B09363000895FF27EE27BB27F6
:10051000AA2760FF04C0A20FB31FE41FF51F220F1C
:10052000331F441F551F969587957795679589F7D3
:100530000097760771F79F2F8E2F7B2F6A2F0895D4
:1005400097FB092E05260ED057FD04D04CD00AD0BB
:10055000001C38F450954095309521953F4F4F4FF2
:100560005F4F0895F6F790958095709561957F4F50
:100570008F4F9F4F08952F923F924F925F926F92AD
:100580007F928F929F92AF92BF92CF92DF92EF9223
:10059000FF920F931F93CF93DF93CDB7DEB7CA1BA4
:1005A000DB0B0FB6F894DEBF0FBECDBF09942A88CF
:1005B000398848885F846E847D848C849B84AA8477
:1005C000B984C884DF80EE80FD800C811B81AA8104
:1005D000B981CE0FD11D0FB6F894DEBF0FBECDBFCF
:1005E000CA2FDB2F0895A1E21A2EAA1BBB1BEA2FEC
:1005F000FB2F0DC0AA1FBB1FEE1FFF1FA217B307C3
:10060000E407F50720F0A21BB30BE40BF50B661F04
:10061000771F881F991F1A9469F7609570958095C8
:100620009095262F372F482F592F6A2F7B2F8E2FEB
:080630009F2F0895F894FFCFFD
:0406380001000000BD
:00000001FF
