:100000000BC0E7C123C022C021C020C0B2C11EC0A6
:100010001DC01CC01BC01AC011241FBECFEDCDBF18
:1000200010E0A4E6B0E001C01D92A83AB107E1F7E4
:1000300010E0A0E6B0E0ECEFF6E003C0C895319622
:100040000D92A436B107D1F788D156C3D9CF1F93EB
:10005000CF93DF93C8E6D0E010E06991812F2AD2D8
:100060001E5F1034D1F7DF91CF911F910895BE9894
:10007000C69A0895CF93DF93C8E6D0E09AD299D27A
:10008000899380E0C838D807C9F7DF91CF910895E8
:1000900067FD03C0603221F402C06FE101C060E07F
:1000A00047FD03C0483019F003C047E001C040E0FD
:1000B00021E030E002C0220F331F4A95E2F7E62F1D
:1000C000FF27E7FDF095E80FF91F8081822308954F
:1000D000CF92DF92EF92FF920F931F93CF93DF9314
:1000E000C82FD92FF62E042FD62EDA946D2DD0DFFF
:1000F00011E0882309F410E0C02EC3948C2F9D2FAB
:100100006D2D4C2DC5DF81111F5FE02EEA948C2FE1
:100110009D2F6D2D4E2DBCDF81111F5F8C2F9D2FCC
:100120006F2D4E2DB5DF81111F5F8C2F9D2F6F2DF1
:100130004C2DAEDF81111F5FDF2CD3948C2F9D2FB0
:100140006D2D402FA5DF81111F5F8C2F9D2F6D2DF1
:100150004C2D9EDF81111F5F8C2F9D2F6D2D4E2DFD
:1001600097DF81111F5F123060F0143050F48C2F34
:100170009D2F6F2D402F8CDF882329F481E01330D1
:1001800019F080E001C081E0DF91CF911F910F91C4
:10019000FF90EF90DF90CF900895DF92EF92FF9263
:1001A0000F931F93CF93DF93082F192FC62FD72FAD
:1001B000FF24DD2421C0802F912F6F2D4E2D68DF6D
:1001C000813041F48C2F9D2F6F2D4E2D61DF8823C0
:1001D00051F00AC0882341F48C2F9D2F6F2D4E2D96
:1001E00057DF813009F4D394E3948E2D883019F7CA
:1001F000F3948F2D803211F0EE24DDCF8D2DDF9121
:10020000CF911F910F91FF90EF90DF900895AF92E3
:10021000BF92CF92DF92EF92FF920F931F93DF93E3
:10022000CF930F92CDB7DEB798E8E92E90E0F92E84
:100230000E2D1F2D20E081E0C82ED12C30C088E685
:1002400090E0622F4A2D298343DFA02FB12F3C91EC
:100250002981813059F48C2D9D2D0A2C02C0880FE4
:10026000991F0A94E2F7832B8C930DC08C2D9D2D42
:100270000A2C02C0880F991F0A94E2F78095832305
:10028000E02FF12F80830894A11CB11CF8E0AF1679
:10029000B104A9F62F5F0F5F1F4F203219F0AA2477
:1002A000BB24CDCF88E890E068E670E076DF85304B
:1002B00030F4809164008F5F809364001AC08930AD
:1002C00030F4809165009091660001960EC0809197
:1002D0006400882319F08150809364008091650048
:1002E00090916600009729F00197909366008093A3
:1002F0006500809164008B3218F0109264000BC08E
:100300008091650090916600853C910530F01092D7
:10031000660010926500AEDE0DC0E8E6F0E0AE2D9E
:10032000BF2D8D91EA2EFB2E8193B8EAEB16B0E03B
:10033000FB06A9F70F90CF91DF911F910F91FF90CE
:10034000EF90DF90CF90BF90AF90089583B7856016
:1003500083BF89B7826089BF0895BED088DE8ADEF8
:10036000F5DF85B7826085BF8BB780648BBF7894DB
:10037000FFCF1F920F920FB60F9211242F933F932E
:100380004F935F936F937F938F939F93AF93BF939D
:10039000EF93FF93809167008F3030F48091670076
:1003A0008F5F8093670004C01092670050DE2FDFDC
:1003B000FF91EF91BF91AF919F918F917F916F913D
:1003C0005F914F913F912F910F900FBE0F901F9013
:1003D00018951F920F920FB60F9211242F933F93EF
:1003E0004F935F936F937F938F939F93AF93BF933D
:1003F000EF93FF933FDEFF91EF91BF91AF919F91FC
:100400008F917F916F915F914F913F912F910F90BD
:100410000FBE0F901F901895C3980895C39A089522
:1004200009C0C498962F982311F0C59A01C0C598A9
:10043000C49A66956623A9F708951F93182FECDFD9
:1004400084E064E0EDDF812F60E8EADF80E061E0D6
:10045000E7DFE4DF1F9108958F70806AEECF91E0AF
:10046000882309F490E0892FE8CF882311F083E0F6
:1004700001C082E0E2CF811184E08061DECF811192
:1004800084E08861DACF8370880F880F8062D5CFCF
:100490000F931F93082F162FBFDF85E064E0C0DFA6
:1004A000802F60E4BDDF812F68E0BADFB7DF1F91E6
:1004B0000F9108950F931F93082F162FADDF85E03E
:1004C00064E0AEDF802F60E4ABDF812F60E8A8DF5F
:1004D000A5DF1F910F910895CF93DF9388B38863B1
:1004E00088BB87B3886387BB97DF98DF80E0B7DF7F
:1004F00081E0B5DF81E0BFDF80E0C1DF80E0C3DF06
:1005000087E0AADFC0E0D0E08C2F6C2FC1DF2196FE
:10051000C034D105C9F781E0A8DFDF91CF910895FC
:10052000A0E0B0E0E5E9F2E090C0C82FD92F6881E3
:1005300079818A819B81611571058105910521F47D
:1005400064E279ED8BE597E02DE133EF41E050E097
:1005500059D0E22EF32E042F152F27EA31E440E084
:1005600050E035D0A62EB72EC82ED92E912F802F31
:100570007F2D6E2D2CEE34EF4FEF5FEF28D0262F1E
:10058000372F482F592F2A0D3B1D4C1D5D1D57FF3E
:1005900004C02150304040405048288339834A836A
:1005A0005B833F77822F932FCDB7DEB7EAE069C038
:1005B000B7CF80E690E0B4CFA0E0B0E080936000D9
:1005C00090936100A0936200B09363000895FF27A9
:1005D000EE27BB27AA2760FF04C0A20FB31FE41FAA
:1005E000F51F220F331F441F551F9695879577954A
:1005F000679589F70097760771F79F2F8E2F7B2FCE
:100600006A2F089597FB092E05260ED057FD04D0BA
:100610004CD00AD0001C38F4509540953095219567
:100620003F4F4F4F5F4F0895F6F790958095709527
:1006300061957F4F8F4F9F4F08952F923F924F921A
:100640005F926F927F928F929F92AF92BF92CF9262
:10065000DF92EF92FF920F931F93CF93DF93CDB76B
:10066000DEB7CA1BDB0B0FB6F894DEBF0FBECDBFE3
:1006700009942A88398848885F846E847D848C84B4
:100680009B84AA84B984C884DF80EE80FD800C81BD
:100690001B81AA81B981CE0FD11D0FB6F894DEBFA0
:1006A0000FBECDBFCA2FDB2F0895A1E21A2EAA1BC1
:1006B000BB1BEA2FFB2F0DC0AA1FBB1FEE1FFF1F86
:1006C000A217B307E407F50720F0A21BB30BE40B56
:1006D000F50B661F771F881F991F1A9469F760959D
:1006E000709580959095262F372F482F592F6A2F78
:0C06F0007B2F8E2F9F2F0895F894FFCFD2
:0406FC0001000000F9
:00000001FF
