:100000000BC069C223C022C021C020C005C11EC0D0
:100010001DC01CC01BC01AC011241FBECFEDCDBF18
:1000200010E0A0E6B0E0EAE4F7E003C0C89531963E
:100030000D92A837B107D1F710E0A8E7B0E001C0F2
:100040001D92A03CB107E1F782D07DC3D9CF67FDF7
:1000500003C0603221F402C06FE101C060E047FDDF
:1000600003C0483019F003C047E001C040E021E080
:1000700030E002C0220F331F4A95E2F7E62FFF2738
:10008000E7FDF095E80FF91F808182230895C3985A
:100090000895C39A089509C0C498962F982311F023
:1000A000C59A01C0C598C49A66956623A9F70895B4
:1000B0001F93182FECDF84E064E0EDDF812F60E810
:1000C000EADF80E061E0E7DFE4DF1F9108958A3036
:1000D00040F4E82FFF27E7FDF095E459FF4F8081BA
:1000E00001C08EE980937F0080917F008BBBA4E6E6
:1000F000B0E080E0861751F498B3E82FF0E0EE0FFF
:10010000FF1FEC59FF4F2081922B04C028B39C9114
:100110009095922398BB8F5F1296833059F78FEC9E
:1001200097E00197F1F700C000000895CF93DF93A7
:10013000C0E8D0E065D2899380E0C03AD807D1F713
:1001400010927D0010927C00DF91CF910895EF9284
:10015000FF920F931F93DF93CF930F92CDB7DEB72C
:1001600088B3886388BB87B3886387BB90DF91DFE0
:1001700080E09EDF81E09CDF84E19ADF88E198DF08
:1001800080E296DF87EA94DF00E010E080DF85E020
:1001900064E081DF802F60E47EDF802F68E07BDF1A
:1001A00078DF0F5F1F4F0034110581F783E080DF98
:1001B000BDDF83B7856083BF89B7826089BF87B39E
:1001C000876087BB8AB38E6F8ABB85B7826085BF25
:1001D0008BB780648BBF78943AE0E32EF12C2091AA
:1001E0007C0030917D0083E0283E380788F4822F20
:1001F000932F10E06E2D7F2D91D1062F612F7983E3
:1002000066DF802F7981972F1F5F133099F7E7CF33
:100210008AE060E05CDFE3CF1F920F920FB60F928F
:1002200011245F926F927F928F929F92AF92BF92B2
:10023000CF92DF92EF92FF920F931F932F933F93F2
:100240004F935F936F937F938F939F93AF93BF93DE
:10025000CF93DF93EF93FF9380917E008F3030F444
:1002600080917E008F5F80937E0015C110927E008A
:1002700080917C0090917D00019690937D00809309
:100280007C00E0E8CE2EE0E0DE2ECC2DDD2D10E06F
:100290000991FDDE85E064E0FEDE812F60E4FBDE97
:1002A000802F60E8F8DEF5DE1E5F103489F70FEB73
:1002B00010E071E2A72E61E0E62EF12C6CC0C7E0E1
:1002C000D0E05EEF752E7A0C5C2E80E890E0672D12
:1002D0004C2FBDDEBB24B394882309F4BB249C2E91
:1002E0008C2E839480E890E0672D482DB0DE81113C
:1002F000B3949A9480E890E0672D492DA8DE81118F
:10030000B39480E890E0662D492DA1DE8111B3946D
:1003100080E890E0662D482D9ADE8111B39480E844
:1003200090E06A2D452D93DE8111B39480E890E032
:100330006A2D482D8CDE8111B39480E890E06A2DFF
:10034000492D85DE8111B3949B2D923070F094304D
:1003500060F480E890E0662D452D79DE882309F071
:100360008CC0AB2DA33009F488C08E2D9F2D0C2E90
:1003700002C0880F991F0A94E2F78095A02FB12F31
:100380009C9198239C932197BFEFCF3FDB0709F007
:100390009BCF015010404EEF642E6A0CAA9409F0D6
:1003A0008ECF00E0EE241FC080EA90E0602F412F46
:1003B0004EDE813041F480E890E0602F412F47DE2F
:1003C000882351F00AC0882341F480E890E0602F30
:1003D000412F3DDE813009F4E3941F5F183021F78F
:1003E0000F5F003211F010E0DFCFEE2DE53030F47A
:1003F000809179008F5F809379001BC0FE2DF930CA
:1004000030F480917A0090917B0001960EC080912B
:100410007900882319F081508093790080917A00C7
:1004200090917B00009729F0019790937B00809337
:100430007A00809179008B3218F0109279000BC00D
:1004400080917A0090917B00853C910530F010926C
:100450007B0010927A006ADE0CC0E0EAF0E0819145
:10046000AC2DBD2D8D93CA2EDB2EB0E0E03CFB07FA
:10047000B1F781E0809378000EC08E2D9F2D0C2E59
:1004800002C0880F991F0A94E2F7A02FB12F2C9178
:10049000282B2C9378CFFF91EF91DF91CF91BF91D3
:1004A000AF919F918F917F916F915F914F913F910C
:1004B0002F911F910F91FF90EF90DF90CF90BF9001
:1004C000AF909F908F907F906F905F900F900FBE36
:1004D0000F901F9018951F920F920FB60F92112434
:1004E0002F933F934F935F936F937F938F939F933C
:1004F000AF93BF93EF93FF9319DEFF91EF91BF91FD
:10050000AF919F918F917F916F915F914F913F91AB
:100510002F910F900FBE0F901F90189597FB092EEB
:1005200007260AD077FD04D00CD006D000201AF49C
:10053000709561957F4F0895F6F7909581959F4F3F
:100540000895AA1BBB1B51E107C0AA1FBB1FA6171A
:10055000B70710F0A61BB70B881F991F5A95A9F76C
:1005600080959095682F792F8A2F9B2F0895A0E072
:10057000B0E0ECEBF2E090C0C82FD92F6881798110
:100580008A819B81611571058105910521F464E2E1
:1005900079ED8BE597E02DE133EF41E050E059D064
:1005A000E22EF32E042F152F27EA31E440E050E02D
:1005B00035D0A62EB72EC82ED92E912F802F7F2D65
:1005C0006E2D2CEE34EF4FEF5FEF28D0262F372F14
:1005D000482F592F2A0D3B1D4C1D5D1D57FF04C090
:1005E0002150304040405048288339834A835B8300
:1005F0003F77822F932FCDB7DEB7EAE069C0B7CF40
:1006000080E690E0B4CFA0E0B0E0809360009093EB
:100610006100A0936200B09363000895FF27EE2766
:10062000BB27AA2760FF04C0A20FB31FE41FF51F5A
:10063000220F331F441F551F969587957795679511
:1006400089F70097760771F79F2F8E2F7B2F6A2FE0
:10065000089597FB092E05260ED057FD04D04CD0E7
:100660000AD0001C38F450954095309521953F4FA5
:100670004F4F5F4F0895F6F790958095709561956F
:100680007F4F8F4F9F4F08952F923F924F925F92CF
:100690006F927F928F929F92AF92BF92CF92DF9292
:1006A000EF92FF920F931F93CF93DF93CDB7DEB7F7
:1006B000CA1BDB0B0FB6F894DEBF0FBECDBF09948B
:1006C0002A88398848885F846E847D848C849B84E2
:1006D000AA84B984C884DF80EE80FD800C811B81F0
:1006E000AA81B981CE0FD11D0FB6F894DEBF0FBE1F
:1006F000CDBFCA2FDB2F0895A1E21A2EAA1BBB1B68
:10070000EA2FFB2F0DC0AA1FBB1FEE1FFF1FA21752
:10071000B307E407F50720F0A21BB30BE40BF50BBE
:10072000661F771F881F991F1A9469F76095709547
:1007300080959095262F372F482F592F6A2F7B2F82
:0A0740008E2F9F2F0895F894FFCF2D
:10074A00010000000100020004000100FC60DAF26E
:08075A0066B6BEE0FEE69E005B
:00000001FF
