:100000000BC037C223C022C021C020C0D0C01EC038
:100010001DC01CC01BC01AC011241FBECFEDCDBF18
:1000200010E0A4E6B0E001C01D92AB3AB107E1F7E1
:1000300010E0A0E6B0E0E4E9F6E003C0C895319630
:100040000D92A436B107D1F753D022C3D9CF67FDA3
:1000500003C0603221F402C06FE101C060E047FDDF
:1000600003C0483019F003C047E001C040E021E080
:1000700030E002C0220F331F4A95E2F7E62FFF2738
:10008000E7FDF095E80FF91F808182230895C3985A
:100090000895C39A089509C0C498962F982311F023
:1000A000C59A01C0C598C49A66956623A9F70895B4
:1000B0001F93182FECDF84E064E0EDDF812F60E810
:1000C000EADF80E061E0E7DFE4DF1F910895CF938E
:1000D000DF93CBE6D0E039D2899380E0CB38D807E4
:1000E000D1F71092690010926800DF91CF910895C6
:1000F0000F931F93CF93DF9388B3886388BB87B335
:10010000886387BBC4DFC5DF80E0D2DF81E0D0DF5A
:1001100084E1CEDF88E1CCDF80E2CADF87EAC8DF96
:10012000C0E0D0E0B4DF85E064E0B5DF8C2F60E4B0
:10013000B2DF8C2F68E0AFDFACDF2196C034D10591
:1001400089F783E0B5DFC3DF83B7856083BF89B7F5
:10015000826089BF87E090E021E030E06AB3422FFF
:10016000532F082E02C0440F551F0A94E2F7642B48
:100170006ABB01974FEF8F3F940781F785B7826085
:1001800085BF8BB780648BBF789485B7806285BF4D
:10019000889580916400813031F40091680010915D
:1001A000690010926400802F80958BBBEECF1F9268
:1001B0000F920FB60F9211245F926F927F928F92DF
:1001C0009F92AF92BF92CF92DF92EF92FF920F93E6
:1001D0001F932F933F934F935F936F937F938F93CF
:1001E0009F93AF93BF93CF93DF93EF93FF93809150
:1001F0006A008F3030F480916A008F5F80936A00CC
:1002000018C110926A00809168009091690001966F
:1002100090936900809368004BE6C42E40E0D42E92
:10022000CC2DDD2D10E0099132DF85E064E033DF75
:10023000812F60E430DF802F60E82DDF2ADF1E5F32
:10024000103489F70AEA10E031E2A32E21E0E22E11
:10025000F12C6CC0C7E0D0E09EEF792E7A0C5C2EBA
:100260008BE690E0672D4C2FF2DEBB24B3948823FD
:1002700009F4BB249C2E8C2E83948BE690E0672D92
:10028000482DE5DE8111B3949A948BE690E0672DBA
:10029000492DDDDE8111B3948BE690E0662D492D6A
:1002A000D6DE8111B3948BE690E0662D482DCFDE2B
:1002B0008111B3948BE690E06A2D452DC8DE811143
:1002C000B3948BE690E06A2D482DC1DE8111B39482
:1002D0008BE690E06A2D492DBADE8111B3949B2DF7
:1002E000923070F0943060F48BE690E0662D452DEE
:1002F000AEDE882309F08FC0AB2DA33009F48BC08C
:100300008E2D9F2D0C2E02C0880F991F0A94E2F7A4
:100310008095A02FB12F9C9198239C932197BFEF9C
:10032000CF3FDB0709F09BCF015010408EEF682EC6
:100330006A0CAA9409F08ECF00E0EE241FC08BE86F
:1003400090E0602F412F83DE813041F48BE690E016
:10035000602F412F7CDE882351F00AC0882341F4AE
:100360008BE690E0602F412F72DE813009F4E39438
:100370001F5F183021F70F5F003211F010E0DFCF60
:10038000EE2DE53030F4809165008F5F809365003D
:100390001BC0FE2DF93030F480916600909167000B
:1003A00001960EC080916500882319F081508093DA
:1003B00065008091660090916700009729F0019791
:1003C0009093670080936600809165008B3218F0EF
:1003D000109265000BC08091660090916700853C8B
:1003E000910530F0109267001092660070DE0CC02C
:1003F000EBE8F0E08191AC2DBD2D8D93CA2EDB2E64
:10040000B0E0EB3AFB07B1F781E08093640085B779
:100410008F7D85BF0EC08E2D9F2D0C2E02C0880FA4
:10042000991F0A94E2F7A02FB12F2C91282B2C931F
:1004300075CFFF91EF91DF91CF91BF91AF919F91D8
:100440008F917F916F915F914F913F912F911F916C
:100450000F91FF90EF90DF90CF90BF90AF909F9063
:100460008F907F906F905F900F900FBE0F901F90B6
:1004700018951F920F920FB60F9211242F933F934E
:100480004F935F936F937F938F939F93AF93BF939C
:10049000EF93FF931CDEFF91EF91BF91AF919F917E
:1004A0008F917F916F915F914F913F912F910F901D
:1004B0000FBE0F901F901895A0E0B0E0E1E6F2E0CB
:1004C00090C0C82FD92F688179818A819B8161155D
:1004D00071058105910521F464E279ED8BE597E0E2
:1004E0002DE133EF41E050E059D0E22EF32E042FFE
:1004F000152F27EA31E440E050E035D0A62EB72E84
:10050000C82ED92E912F802F7F2D6E2D2CEE34EFFB
:100510004FEF5FEF28D0262F372F482F592F2A0D66
:100520003B1D4C1D5D1D57FF04C021503040404015
:100530005048288339834A835B833F77822F932FE8
:10054000CDB7DEB7EAE069C0B7CF80E690E0B4CFC0
:10055000A0E0B0E08093600090936100A0936200FF
:10056000B09363000895FF27EE27BB27AA2760FFFB
:1005700004C0A20FB31FE41FF51F220F331F441F37
:10058000551F969587957795679589F70097760714
:1005900071F79F2F8E2F7B2F6A2F089597FB092EBF
:1005A00005260ED057FD04D04CD00AD0001C38F4DC
:1005B00050954095309521953F4F4F4F5F4F08958F
:1005C000F6F790958095709561957F4F8F4F9F4F6F
:1005D00008952F923F924F925F926F927F928F92E7
:1005E0009F92AF92BF92CF92DF92EF92FF920F93C2
:1005F0001F93CF93DF93CDB7DEB7CA1BDB0B0FB6CC
:10060000F894DEBF0FBECDBF09942A883988488888
:100610005F846E847D848C849B84AA84B984C8841E
:10062000DF80EE80FD800C811B81AA81B981CE0F15
:10063000D11D0FB6F894DEBF0FBECDBFCA2FDB2F82
:100640000895A1E21A2EAA1BBB1BEA2FFB2F0DC097
:10065000AA1FBB1FEE1FFF1FA217B307E407F50772
:1006600020F0A21BB30BE40BF50B661F771F881F4E
:10067000991F1A9469F76095709580959095262F2B
:10068000372F482F592F6A2F7B2F8E2F9F2F08959A
:04069000F894FFCF0C
:040694000100000061
:00000001FF
