:1000000010C01FC01EC01DC01CC01BC01AC019C01C
:1000100018C017C016C015C014C013C012C011C03C
:1000200010C011241FBECFE5D2E0DEBFCDBF10E06F
:10003000A0E6B0E001C01D92A038B107E1F70AD0F8
:10004000B7C0DECFE0E6F0E0119280E0E038F807DC
:10005000D9F70895EF92FF920F931F93CF93DF93F9
:1000600083D010E0EE24EA94EDDFE12FFF27E7FDD7
:10007000F095E05AFF4FE082C0E6D0E00F2D699185
:10008000802F60D00E5F8FEC97E00197F1F700C0F2
:10009000000090E0C038D90791F780E4F80E1F5FA8
:1000A000103214F310E0E0CFC3980895C39A089576
:1000B00009C0C498962F982311F0C59A01C0C5981D
:1000C000C49A66956623A9F708951F93182FECDF4D
:1000D00084E064E0EDDF812F60E8EADF80E061E04A
:1000E000E7DFE4DF1F9108958F70806AEECF91E023
:1000F000882309F490E0892FE8CF882311F083E06A
:1001000001C082E0E2CF811184E08061DECF811105
:1001100084E08861DACF8370880F880F8062D5CF42
:100120000F931F93082F162FBFDF85E064E0C0DF19
:10013000802F60E4BDDF812F68E0BADFB7DF1F9159
:100140000F9108950F931F93082F162FADDF85E0B1
:1001500064E0AEDF802F60E4ABDF812F60E8A8DFD2
:10016000A5DF1F910F910895CF93DF9388B3886324
:1001700088BB87B3886387BB97DF98DF80E0B7DFF2
:1001800081E0B5DF81E0BFDF80E0C1DF80E0C3DF79
:1001900087E0AADFC0E0D0E08C2F6C2FC1DF219672
:1001A000C034D105C9F781E0A8DFDF91CF91089570
:0401B000F894FFCFF1
:00000001FF
