:1000000010C01FC01EC01DC01CC01BC01AC019C01C
:1000100018C017C016C015C014C013C012C011C03C
:1000200010C011241FBECFE5D2E0DEBFCDBF10E06F
:10003000A0E6B0E001C01D92A038B107E1F702D000
:10004000BDC0DECF97D080E690E067D084E06FEF50
:1000500052D080E690E067D0F6CFC3980895C39A57
:10006000089509C0C498962F982311F0C59A01C02D
:10007000C598C49A66956623A9F708951F93182F0B
:10008000ECDF84E064E0EDDF812F60E8EADF80E010
:1000900061E0E7DFE4DF1F9108958F70806AEECFA3
:1000A00091E0882309F490E0892FE8CF882311F0AC
:1000B00083E001C082E0E2CF811184E08061DECF85
:1000C000811184E08861DACF8370880F880F8062A5
:1000D000D5CF0F931F93082F162FBFDF85E064E065
:1000E000C0DF802F60E4BDDF812F68E0BADFB7DFBB
:1000F0001F910F9108950F931F93082F162FADDFB7
:1001000085E064E0AEDF802F60E4ABDF812F60E844
:10011000A8DFA5DF1F910F910895FC0180E21192E5
:100120008150E9F70895CF93DF93EC0196DF85E0E6
:1001300064E097DF80E060E494DF30E220E812C002
:10014000C4984191422311F0C59A01C0C598EF01AE
:10015000C49A0197A9F7269511F0289701C020E8C5
:10016000315021F0FE0188E090E0EACF78DFDF91A6
:10017000CF910895CF93DF9388B3886388BB87B30B
:10018000886387BB6ADF6BDF80E08ADF81E088DF1E
:1001900081E092DF80E094DF80E096DF87E07DDF22
:1001A000C0E0D0E08C2F6C2F94DF2196C034D105B5
:1001B000C9F781E07BDFDF91CF910895F894FFCFFD
:00000001FF
