:1000000012C067C22AC029C028C011C126C025C09D
:1000100024C023C022C021C0010204FD60DBF366BE
:10002000B7BFE1FFE79F11241FBECFEDCDBF10E0AA
:10003000A4E6B0E001C01D92AA3AB107E1F710E0D2
:10004000A0E6B0E0E6E4F7E003C0C89531960D9273
:10005000A436B107D1F785D074C3D2CF67FD03C0F2
:10006000603221F402C06FE101C060E047FD03C0CF
:10007000483019F003C047E001C040E021E030E023
:1000800002C0220F331F4A95E2F7E62FFF27E7FD54
:10009000F095E80FF91F808182230895C398089591
:1000A000C39A089509C0C498962F982311F0C59A51
:1000B00001C0C598C49A66956623A9F708951F9351
:1000C000182FECDF84E064E0EDDF812F60E8EADFE9
:1000D00080E061E0E7DFE4DF1F9108958A3038F4C3
:1000E000E82FFF27E7FDF095E55EFF4F02C0E5E250
:1000F000F0E0C895E02DE695EBBB80E090E0E62FC0
:10010000F0E0E85EFF4FC895202D681721F438B362
:10011000322B38BB0AC038B3E82FF92FE85EFF4F07
:10012000C895E02DE095E323E8BB01968330910567
:1001300061F78FEC97E00197F1F700C00000089598
:10014000CF93DF93CAE6D0E059D2899380E0CA38D2
:10015000D807D1F71092690010926800DF91CF9113
:100160000895EF92FF920F931F93DF93CF930F9217
:10017000CDB7DEB788B3886388BB87B3886387BB96
:100180008DDF8EDF80E09BDF81E099DF84E197DF08
:1001900088E195DF80E293DF87EA91DF00E010E0FD
:1001A0007DDF85E064E07EDF802F60E47BDF802FF1
:1001B00068E078DF75DF0F5F1F4F0034110581F7AE
:1001C00083E07DDFBDDF8FB58F608FBD89B7846031
:1001D00089BF87B3876087BB8AB38E6F8ABBD09A8B
:1001E00085B7826085BF8BB780648BBF78948AE0C7
:1001F000E82EF12C209168003091690083E0283EC0
:10020000380788F4822F932F10E06E2D7F2D84D134
:10021000062F612F798362DF802F7981972F1F5FEF
:10022000133099F7E7CF8AE060E058DFE3CF1F9201
:100230000F920FB60F9211245F926F927F928F925E
:100240009F92AF92BF92CF92DF92EF92FF920F9365
:100250001F932F933F934F935F936F937F938F934E
:100260009F93AF93BF93CF93DF93EF93FF938091CF
:1002700068009091690001969093690080936800EE
:100280005AE6C52E50E0D52ECC2DDD2D10E009917B
:1002900005DF85E064E006DF812F60E403DF802F67
:1002A00060E800DFFDDE1E5F103489F709EA10E028
:1002B00041E2A42E31E0E32EF12C6CC0C7E0D0E087
:1002C0002EEF722E7A0C5C2E8AE690E0672D4C2F72
:1002D000C5DEBB24B394882309F4BB249C2E8C2E4A
:1002E00083948AE690E0672D482DB8DE8111B3949F
:1002F0009A948AE690E0672D492DB0DE8111B3947F
:100300008AE690E0662D492DA9DE8111B3948AE634
:1003100090E0662D482DA2DE8111B3948AE690E02C
:100320006A2D452D9BDE8111B3948AE690E06A2DFB
:10033000482D94DE8111B3948AE690E06A2D492D10
:100340008DDE8111B3949B2D923070F0943060F467
:100350008AE690E0662D452D81DE882309F0ABC04A
:10036000AB2DA33009F4A7C08E2D9F2D0C2E02C0FB
:10037000880F991F0A94E2F78095A02FB12F9C91C6
:1003800098239C932197BFEFCF3FDB0709F09BCFCA
:10039000015010409EEF692E6A0CAA9409F08ECF8E
:1003A00000E0EE241FC08AE890E0602F412F56DE67
:1003B000813041F48AE690E0602F412F4FDE8823A0
:1003C00051F00AC0882341F48AE690E0602F412F63
:1003D00045DE813009F4E3941F5F183021F70F5F89
:1003E000003211F010E0DFCFEE2DE53030F48091D7
:1003F00065008F5F809365001BC0FE2DF93030F4DF
:10040000809166009091670001960EC08091650012
:10041000882319F081508093650080916600909147
:100420006700009729F0019790936700809366001A
:10043000809165008B3218F0109265000BC080919E
:10044000660090916700853C910530F0109267003E
:100450001092660075DE0CC0EAE8F0E08191AC2DE8
:10046000BD2D8D93CA2EDB2EB0E0EA3AFB07B1F723
:1004700081E080936400FF91EF91DF91CF91BF9174
:10048000AF919F918F917F916F915F914F913F912C
:100490002F911F910F91FF90EF90DF90CF90BF9021
:1004A000AF909F908F907F906F905F900F900FBE56
:1004B0000F901F9018958E2D9F2D0C2E02C0880F27
:1004C000991F0A94E2F7A02FB12F2C91282B2C937F
:1004D00059CF1F920F920FB60F9211242F933F9373
:1004E0004F935F936F937F938F939F93AF93BF933C
:1004F000EF93FF9325DEFF91EF91BF91AF919F9115
:100500008F917F916F915F914F913F912F910F90BC
:100510000FBE0F901F90189597FB092E07260AD043
:1005200077FD04D00CD006D000201AF470956195A8
:100530007F4F0895F6F7909581959F4F0895AA1BD8
:10054000BB1B51E107C0AA1FBB1FA617B70710F0BE
:10055000A61BB70B881F991F5A95A9F780959095F0
:10056000682F792F8A2F9B2F0895A0E0B0E0EAEB47
:10057000F2E090C0C82FD92F688179818A819B8150
:10058000611571058105910521F464E279ED8BE532
:1005900097E02DE133EF41E050E059D0E22EF32E09
:1005A000042F152F27EA31E440E050E035D0A62E85
:1005B000B72EC82ED92E912F802F7F2D6E2D2CEE89
:1005C00034EF4FEF5FEF28D0262F372F482F592FCA
:1005D0002A0D3B1D4C1D5D1D57FF04C021503040AE
:1005E00040405048288339834A835B833F77822F7A
:1005F000932FCDB7DEB7EAE069C0B7CF80E690E0D1
:10060000B4CFA0E0B0E08093600090936100A0932D
:100610006200B09363000895FF27EE27BB27AA2747
:1006200060FF04C0A20FB31FE41FF51F220F331F8A
:10063000441F551F969587957795679589F700977D
:10064000760771F79F2F8E2F7B2F6A2F089597FBC8
:10065000092E05260ED057FD04D04CD00AD0001C20
:1006600038F450954095309521953F4F4F4F5F4F4F
:100670000895F6F790958095709561957F4F8F4F0F
:100680009F4F08952F923F924F925F926F927F9269
:100690008F929F92AF92BF92CF92DF92EF92FF9292
:1006A0000F931F93CF93DF93CDB7DEB7CA1BDB0B3E
:1006B0000FB6F894DEBF0FBECDBF09942A883988E3
:1006C00048885F846E847D848C849B84AA84B984EA
:1006D000C884DF80EE80FD800C811B81AA81B981F6
:1006E000CE0FD11D0FB6F894DEBF0FBECDBFCA2FFF
:1006F000DB2F0895A1E21A2EAA1BBB1BEA2FFB2FAA
:100700000DC0AA1FBB1FEE1FFF1FA217B307E407F0
:10071000F50720F0A21BB30BE40BF50B661F771F48
:10072000881F991F1A9469F7609570958095909528
:10073000262F372F482F592F6A2F7B2F8E2F9F2F31
:060740000895F894FFCFBC
:0407460001000000AE
:00000001FF
