:1000000010C02AC029C028C027C026C025C024C0CF
:1000100023C022C021C020C01FC01EC01DC01CC0E4
:100020001BC011241FBECFE5D2E0DEBFCDBF10E064
:10003000A4E6B0E001C01D92A53AB107E1F710E0D7
:10004000A0E6B0E0E8EDF5E002C005900D92A43620
:10005000B107D9F74CD1BEC2D3CF1F93CF93DF9353
:10006000C5E6D0E010E06991812FA0D11E5F103469
:10007000D1F7DF91CF911F9108958A98929A0895B0
:10008000CF93DF93C5E6D0E004D203D2899380E01A
:10009000C538D807C9F7DF91CF91089567FD03C030
:1000A000603221F402C06FE101C060E047FD03C08F
:1000B000483019F003C047E001C040E021E030E0E3
:1000C00002C0220F331F4A95E2F7E62FFF27E7FD14
:1000D000F095E80FF91F808182230895CF92DF9277
:1000E000EF92FF920F931F93CF93DF93EC01F62EC5
:1000F000042FD62EDA946D2DD1DF11E0882309F478
:1001000010E0C02EC394CE016D2D4C2DC7DF8111A0
:100110001F5FE02EEA94CE016D2D4E2DBFDF8111C1
:100120001F5FCE016F2D4E2DB9DF81111F5FCE01F4
:100130006F2D4C2DB3DF81111F5FDF2CD394CE01C7
:100140006D2D402FABDF81111F5FCE016D2D4C2D2A
:10015000A5DF81111F5FCE016D2D4E2D9FDF811117
:100160001F5F123058F0143048F4CE016F2D402F2D
:1001700095DF882329F481E0133019F080E001C075
:1001800081E0DF91CF911F910F91FF90EF90DF9071
:10019000CF900895DF92EF92FF920F931F93CF932A
:1001A000DF938C01EB01FF24DD241EC0C8016F2DFD
:1001B0004E2D74DF813039F4CE016F2D4E2D6EDF60
:1001C000882349F009C0882339F4CE016F2D4E2DC4
:1001D00065DF813009F4D394E3948E2D883031F7B4
:1001E000F3948F2D803211F0EE24E0CF8D2DDF912E
:1001F000CF911F910F91FF90EF90DF900895AF92F4
:10020000BF92CF92DF92EF92FF920F931F93DF93F3
:10021000CF930F92CDB7DEB795E8E92E90E0F92E97
:10022000870120E081E0C82ED12C2CC085E690E02B
:10023000622F4A2D298352DFD8013C9129818130D8
:1002400051F4C6010A2C02C0880F991F0A94E2F7E4
:10025000832B8C930BC0C6010A2C02C0880F991FF8
:100260000A94E2F780958323F80180830894A11C07
:10027000B11CF8E0AF16B104C9F62F5F0F5F1F4F36
:10028000203219F0AA24BB24D1CF85E890E065E69E
:1002900070E080DF85BB90916400853010F49F5F33
:1002A00003C0992319F0915090936400829B06C07B
:1002B00080916400853120F010926400E1DE0BC073
:1002C000E5E6F0E0D7018D917D018193B5EAEB166B
:1002D000B0E0FB06B9F70F90CF91DF911F910F911E
:1002E000FF90EF90DF90CF90BF90AF90089570D0C7
:1002F000C4DEC6DE8FEF84BBB0DE81DF8FEF94E318
:10030000ACE081509040A040E1F700C00000F4CF85
:10031000C4980895C49A089509C0C598962F982343
:1003200011F0C69A01C0C698C59A66956623A9F7CA
:1003300008951F93182FECDF84E064E0EDDF812F38
:1003400060E8EADF80E061E0E7DFE4DF1F91089525
:100350008F70806AEECF91E0882309F490E0892FB6
:10036000E8CF882311F083E001C082E0E2CF811161
:1003700084E08061DECF811184E08861DACF837010
:10038000880F880F8062D5CF0F931F93082F162FE9
:10039000BFDF85E064E0C0DF802F60E4BDDF812F38
:1003A00068E0BADFB7DF1F910F9108950F931F9395
:1003B000082F162FADDF85E064E0AEDF802F60E40C
:1003C000ABDF812F60E8A8DFA5DF1F910F910895B3
:1003D000CF93DF9388B3806788BB87B3806787BB81
:1003E00097DF98DF80E0B7DF81E0B5DF81E0BFDF36
:1003F00080E0C1DF80E0C3DF87E0AADFC0E0D0E0BB
:100400008C2F6C2FC1DF2196C034D105C9F781E054
:10041000A8DFDF91CF910895A0E0B0E0E1E1F2E044
:1004200088C0EC01688179818A819B8161157105A1
:100430008105910521F464E279ED8BE597E02DE1EA
:1004400033EF41E050E052D079018A0127EA31E4EC
:1004500040E050E02CD05B016C01C801B7012CEEEC
:1004600034EF4FEF5FEF23D06A0D7B1D8C1D9D1D78
:1004700097FF04C061507040804090486883798342
:100480008A839B837F77CB01CDB7DEB7EAE06DC06F
:10049000C3CF80E690E0C0CFA0E0B0E080936000E2
:1004A00090936100A0936200B09363000895629FEF
:1004B000D001739FF001829FE00DF11D649FE00D5C
:1004C000F11D929FF00D839FF00D749FF00D659FBD
:1004D000F00D9927729FB00DE11DF91F639FB00DBC
:1004E000E11DF91FBD01CF011124089597FB092ECD
:1004F00005260ED057FD04D04BD00AD0001C38F48E
:1005000050954095309521953F4F4F4F5F4F08953F
:10051000F6F790958095709561957F4F8F4F9F4F1F
:1005200008952F923F924F925F926F927F928F9297
:100530009F92AF92BF92CF92DF92EF92FF920F9372
:100540001F93CF93DF93CDB7DEB7CA1BDB0B0FB67C
:10055000F894DEBF0FBECDBF09942A883988488839
:100560005F846E847D848C849B84AA84B984C884CF
:10057000DF80EE80FD800C811B81AA81B981CE0FC6
:10058000D11D0FB6F894DEBF0FBECDBFED010895AB
:10059000A1E21A2EAA1BBB1BFD010DC0AA1FBB1F87
:1005A000EE1FFF1FA217B307E407F50720F0A21BF9
:1005B000B30BE40BF50B661F771F881F991F1A9466
:1005C00069F760957095809590959B01AC01BD0190
:0805D000CF010895F894FFCF5C
:0405D800010000001E
:00000001FF
