:1000000010C01FC01EC01DC01CC01BC01AC019C01C
:1000100018C017C016C015C014C013C012C011C03C
:1000200010C011241FBECFE5D2E0DEBFCDBF10E06F
:10003000A0E6B0E001C01D92A038B107E1F71AD0E8
:10004000B9C0DECFE0E6F0E0119280E0E038F807DA
:10005000D9F708951F93CF93DF93C0E6D0E010E067
:100060006991812F71D01E5F1034D1F7DF91CF914C
:100070001F9108950F931F9379D010E00FEFE2DFE7
:10008000E12FFF27E7FDF095E05AFF4F0083E2DF05
:100090008FEF90E7A2E081509040A040E1F700C0D0
:1000A00000001F5F10325CF310E0E9CFC4980895A0
:1000B000C49A089509C0C598962F982311F0C69A3E
:1000C00001C0C698C59A66956623A9F708951F933F
:1000D000182FECDF84E064E0EDDF812F60E8EADFD9
:1000E00080E061E0E7DFE4DF1F9108958F70806AB0
:1000F000EECF91E0882309F490E0892FE8CF8823A0
:1001000011F083E001C082E0E2CF811184E08061E0
:10011000DECF811184E08861DACF8370880F880F89
:100120008062D5CF0F931F93082F162FBFDF85E076
:1001300064E0C0DF802F60E4BDDF812F68E0BADFBC
:10014000B7DF1F910F9108950F931F93082F162F5C
:10015000ADDF85E064E0AEDF802F60E4ABDF812FB0
:1001600060E8A8DFA5DF1F910F910895CF93DF937B
:1001700088B3806788BB87B3806787BB97DF98DFCA
:1001800080E0B7DF81E0B5DF81E0BFDF80E0C1DF85
:1001900080E0C3DF87E0AADFC0E0D0E08C2F6C2FC7
:1001A000C1DF2196C034D105C9F781E0A8DFDF9116
:0801B000CF910895F894FFCFF0
:00000001FF
